:020000040800F2
:10000000088700204D03000893260008B920000847
:1000100091260008EB050008E12F00080000000011
:100020000000000000000000000000008D02000839
:100030001906000800000000E9020008B5290008C0
:1000400067030008670300086703000867030008E8
:1000500067030008670300086703000867030008D8
:1000600067030008670300086703000867030008C8
:1000700067030008670300086703000867030008B8
:1000800067030008670300086703000867030008A8
:100090006703000867030008670300086703000898
:1000A0008D2A0008B12A0008A52A0008992A00080C
:1000B000BD2A000867030008C92A00086703000872
:1000C0006703000867030008670300086703000868
:1000D0006703000867030008312F0008712F00082C
:1000E000B9060008670300086703000867030008F3
:1000F00067030008D52A00086703000867030008A3
:100100006703000867030008670300086703000827
:100110006703000867030008670300086703000817
:100120006703000867030008670300086703000807
:1001300067030008670300086703000867030008F7
:1001400067030008670300086703000867030008E7
:10015000670300086703000867030008892F000889
:1001600067030008670300086703000867030008C7
:100170006703000867030008670300080000000029
:100180006703000867030008152C000867030008D0
:100190006703000867030008670300086703000897
:1001A00000000000000000006703000800F002F8F3
:1001B00000F05CF80AA090E8000C82448344AAF1A5
:1001C0000107DA4501D100F051F8AFF2090EBAE8A3
:1001D0000F0013F0010F18BFFB1A43F0010318477B
:1001E000CC440000EC4400000A444FF0000C10F82E
:1001F000013B13F0070408BF10F8014B1D1108BFA5
:1002000010F8015B641E05D010F8016B641E01F844
:10021000016BF9D113F0080F1EBF10F8014BAD1C94
:100220000C1B09D16D1E58BF01F801CBFAD505E0B2
:1002300014F8016B01F8016B6D1EF9D59142D6D30C
:10024000704700000023002400250026103A28BF34
:1002500078C1FBD8520728BF30C148BF0B60704738
:100260001FB504F0B6F91FBD10B510BD00F083F93D
:100270001146FFF7F5FF02F00DFF00F0A1F903B4FE
:10028000FFF7F2FF03BC00F0A9F900002C4B19683E
:100290000868B0E8F04F80F30988BFF36F8F4FF024
:1002A000000080F3118870470000000008480068D3
:1002B000006880F308884FF0000080F3148862B66D
:1002C00061B6BFF34F8FBFF36F8F00DF00BF00BF7A
:1002D00008ED00E0DFF80C00016841F470010160F6
:1002E000704700BF88ED00E0EFF30980BFF36F8F28
:1002F000134B1A681EF0100F08BF20ED108A20E97A
:10030000F04F106009B44FF0500080F31188BFF334
:100310004F8FBFF36F8F03F0C3FA4FF0000080F3ED
:10032000118809BC19680868B0E8F04F1EF0100F7A
:1003300008BFB0EC108A80F30988BFF36F8F704755
:1003400034000020EFF30580704700000948804723
:1003500009480047FEE7FEE7FEE7FEE7FEE7FEE7A7
:10036000FEE7FEE7FEE7FEE704480549054A064BBF
:10037000704700007D2A0008AD01000808470020F2
:1003800008870020086700200867002053EA020C55
:1003900000F069802DE9F04B4FF00006002B1FBFE5
:1003A000B3FA83F503FA05F424FA05F65E4012BFAA
:1003B0001643B2FA82F502FA05F4C5F120051EBF14
:1003C00022FA05FC44EA0C04203556EA044C4FEAB4
:1003D000144418BF641C4FF000084FF0000990420D
:1003E00071EB030C39D3002919BFB1FA81F701FA77
:1003F00007F6B0FA80F700FA07F6C7F120071EBF2C
:1004000020FA07FC46EA0C062037B6FBF4FCA7EB03
:100410000507103F07F01F0BCBF120060CFA0BFB72
:100420002CFA06F644BFB3460026202FA4BF5E4632
:100430004FF0000B5BEA060C08BF4FF0010B19EB05
:100440000B09ABFB027C48EB0608C01B06FB02CC89
:100450000BFB03CC71EB0C01C1E70B460246414696
:100460004846BDE8F08B13B54FF000004FF0000197
:10047000AFF30080BDE81C40704710B5203AC0F0D3
:100480000B80B1E81850203AA0E81850B1E8185095
:10049000A0E81850BFF4F5AF5FEA027C24BFB1E8D2
:1004A0001850A0E8185044BF18C918C0BDE8104043
:1004B0005FEA827C24BF51F8043B40F8043B08BF4C
:1004C0007047D20728BF31F8023B48BF11F8012B13
:1004D00028BF20F8023B48BF00F8012B70474FF0BF
:1004E00000020429C0F0128010F0030C00F01B8001
:1004F000CCF1040CBCF1020F18BF00F8012BA8BF0F
:1005000020F8022BA1EB0C0100F00DB85FEAC17CD2
:1005100024BF00F8012B00F8012B48BF00F8012B85
:1005200070474FF0000200B51346944696462039B6
:1005300022BFA0E80C50A0E80C50B1F12001BFF49C
:10054000F7AF090728BFA0E80C5048BF0CC05DF802
:1005500004EB890028BF40F8042B08BF704748BF50
:1005600020F8022B11F0804F18BF00F8012B7047C4
:10057000704770477047754600F02CF8AE4605008E
:100580006946534620F00700854618B020B5FFF7AE
:10059000EBFEBDE820404FF000064FF000074FF0A3
:1005A00000084FF0000B21F00701AC46ACE8C00991
:1005B000ACE8C009ACE8C009ACE8C0098D4670479A
:1005C00010B50446AFF300802046BDE81040FFF7A9
:1005D00056BE000000487047A4460020014918207C
:1005E000ABBEFEE7260002007047FEE770B5094D7E
:1005F000FF231A4605F5807606E000BF30F8024B6F
:1006000054402A5D5A40335D491E89B2F6D242EA0F
:10061000032070BDC300002070470000DFED211AE9
:10062000B0EE401A70B500EEA11A00EEE10A1E4CC1
:100630001E4E04F1200584ED031AB0EE412A85ED2B
:10064000030A96ED101AB0EE420AF1EE410A02F0EA
:10065000EBFF84ED030A96ED111A95ED030AF1EE16
:10066000410A02F0E1FF85ED030AD4ED030AB0EE82
:10067000001ADFED0F1A60EE810A20EE010A20EE6B
:10068000A12ADFED0C0A20EE210A22EE202A20EE1C
:10069000200ABDEEC22ABDEEC00A84ED042A85ED13
:1006A000040A70BD3D0A573EE0450020C402002008
:1006B00000005442000070424FF4806000F0A2B885
:1006C00072B6FEE72DE9F0410446876D00F0CEF9E1
:1006D000064694F835000025022806D08020606583
:1006E00084F834500120BDE8F0812068016821F0D1
:1006F000160101602068416921F080014161206C90
:1007000008B9A06C20B12068016821F008010160DF
:100710002068016821F0010101600CE000F0A6F9F9
:10072000801B052807D920206065032084F8350048
:1007300084F83450D7E720680068C007EED194F8F9
:100740005C103F208840B860012084F8350084F8B0
:1007500034500020C7E790F83510022903D08021DB
:10076000416501207047052180F835100068016857
:1007700021F00101016000207047000070B50446BF
:1007800000F074F90546601C02D004480078044467
:1007900000F06CF9401BA042FAD370BD2400002089
:1007A00030B5B0F5806F1FD1104A506A104908600B
:1007B000002151620F4A104C1388012B0DD1238860
:1007C0000E4D5B1C9BB205EB4305238025F8020C04
:1007D0000B4D2D78AB4200D3118040F602039842B6
:1007E00002D301201080218030BD000000000140B4
:1007F000180300201C03002014030020A045002043
:1008000016030020044910B50A68024202D00860AD
:10081000FFF7C6FF10BD0000143C01402DE9F84F62
:10082000DFF8F8A10022012403254FF00F090AF197
:10083000040BAAF1040E00BF0B6804FA02F6334061
:10084000B34270D10F7907F00307012F01D0022FB7
:1008500016D187684FEA420805FA08FC27EA0C0718
:10086000D1F80CC00CFA08FC4CEA070CC0F808C020
:100870004768B7430E79C6F3001696403E4346607C
:100880000E79F643B6070AD0C7684FEA420C05FA5C
:100890000CF6B7438E6806FA0CF63E43C6600E7936
:1008A00006F00306022E10D1D60800EB8608D8F811
:1008B000206057074FEAD76C09FA0CF7BE430F695F
:1008C00007FA0CF73743C8F8207006684FEA420C65
:1008D00005FA0CF7BE430F7907F0030707FA0CF788
:1008E000374307604E6816F4403F1CD04C4E3768C3
:1008F00047F480473760366822F0030706F48046E5
:100900000096484E07EB060CDCF8086897073F0F87
:1009100009FA07F826EA0806DFF80C81404503D1FA
:100920004FF0000841E072E0DFF80081404502D15D
:100930004FF0010839E0DFF8F880404502D14FF070
:10094000020832E0DFF8EC80404502D14FF00308A6
:100950002BE0DFF8E480404502D14FF0040824E0AA
:10096000DFF8D880404502D14FF005081DE0DFF8E0
:10097000D080404502D14FF0060816E0DFF8C48071
:10098000404502D14FF007080FE0DFF8BC8040453A
:1009900002D14FF0080808E0DFF8B080404502D1EE
:1009A0004FF0090801E04FF00A0808FA07F848EA92
:1009B0000608CCF80888DAF800605746D1F804C079
:1009C0009E435FEACC2C00D51E433E60DBF80060FE
:1009D0005F46D1F804C09E435FEA8C2C00D51E43CD
:1009E0003E60DEF800607746D1F804C09E435FEABF
:1009F0008C3C00D51E433E60084F083F3E68D1F84E
:100A000004C09E435FEACC3C00D51E433E60521CAE
:100A1000102AFFF411AFBDE8F88F0000083C014038
:100A2000443802400030014000000240000402400F
:100A300000080240000C0240001002400014024076
:100A400000180240001C0240002002400024024026
:100A5000426921EA02030A4043EA02418161704788
:100A60000AB1816170470904FBE700000148806812
:100A70007047000024000020024881680278114479
:100A800081607047240000200B4810B5016841F4D4
:100A900000710160016841F480610160016841F406
:100AA00080710160032000F08DF80F2000F006F83F
:100AB00000F03EF8002010BD003C024010B5014699
:100AC00088B000222D2000F05DF82D2000F04CF8B9
:100AD00013480024016841F480710160006805A991
:100AE00000F480700690684600F050F900F06EF94E
:100AF0000C494000B0FBF1F10C480B4A491E026062
:100B000040F2E732C0E90324C0E9011400F0AEFB73
:100B100010B1012008B010BD044800F06FFCF9E7E7
:100B20004038024040420F00002000401C080020D6
:100B30000C4882B0016841F480410160006800F413
:100B4000804000900748001F016841F0805101601B
:100B50000068002200F0805000900F21901E02B02B
:100B600000F010B844380240002809DB00F01F02F2
:100B7000012191404009800000F1E020C0F80011FF
:100B800070470000F0B40E4B1B680C46C3F3022301
:100B9000C3F10705042D00D90425191D072901D229
:100BA000002300E0DB1E012606FA05F1491E214064
:100BB00099409E40761E16403143F0BC02F05ABA6E
:100BC0000CED00E0064900F0070208684FF6FF034D
:100BD000184040EA0220034A1043086070470000B2
:100BE0000CED00E00000FA052DE9F8431748016814
:100BF00041F0805101600068154F00F080500126DF
:100C000000903E64FFF732FF05464FF47A78114CAE
:100C100005E000BFFFF72AFF401B40450DD8606884
:100C2000C003F7D57E64FFF721FF0546464607E07F
:100C3000FFF71CFF401BB04202D90320BDE8F88338
:100C400060688003F4D50020F8E7000040380240D7
:100C500000000E42007000402DE9F0470E460500EE
:100C600065D0DFF81481D8F80000F7B200F00F006B
:100C7000B04207D288F80070D8F8000000F00F00EA
:100C8000B04254D128683D4C810712D5400703D5A6
:100C9000206840F4E05020602878000703D52068E1
:100CA00040F4604020602068A96820F0F00008430C
:100CB00020602878C0072DD030496868083901289D
:100CC00012D0022813D0032811D0096889070029FF
:100CD0002DDA216821F0030101432160FFF7C6FEF0
:100CE000814641F2883A0EE009688903EFE7096816
:100CF0008901ECE7FFF7BAFEA0EB0901514502D9E3
:100D00000320BDE8F0872068696800F00C00B0EBB4
:100D1000810FEFD1D8F80010404601F00F01B14229
:100D200007D90770006800F00F00B04201D0012021
:100D3000E7E72878400705D52068E96820F4E05007
:100D4000084320602878000706D52068296920F428
:100D5000604040EAC100206000F058F82168084A6D
:100D6000C1F30311515CC840064908600648006899
:100D7000FFF7A4FE0020C4E7003C02400838024010
:100D80005846000830000020280000200F22026092
:100D90000C4A136803F003034360136803F0F00385
:100DA0008360136803F4E053C36012684FF4E053A8
:100DB00003EAD20202610448006800F00F000860F4
:100DC0007047000008380240003C024004480549D2
:100DD00000680968044AC1F38221515CC840704729
:100DE00030000020083802406846000804480549E1
:100DF00000680968044AC1F34231515CC840704739
:100E0000300000200838024068460008154810B538
:100E1000006810F00C02144813D04110042A0FD0BF
:100E2000082A0ED10F4C241F2268236802F03F02CB
:100E30005B0207D52068C0F38810A0FB010106E023
:100E4000084610BD2168C1F38811A1FB00010023F1
:100E5000FFF79CFA2168C1F30141491C4900B0FB2E
:100E6000F1F010BD083802400024F4002DE9F84FDD
:100E700004006ED02078DFF84C93C007A9F1040578
:100E80004AD009F104000168C1F38101012908D0A9
:100E90000068C0F3810002280AD1D9F8000040029E
:100EA00006D52868800337D560680028E1D033E094
:100EB0006068B0F5803F10D0B0F5A02F286810D042
:100EC00020F480302860286820F480202860606842
:100ED000A8B1FFF7CBFD06460DE0286840F480304E
:100EE000F4E740F480202860F7E700BFFFF7BEFD7D
:100EF000801B642873D828688003F7D50CE0FFF7BF
:100F0000B5FD064605E000BFFFF7B0FD801B642875
:100F1000F0D828688003F7D42078DFF8AC82800707
:100F20004FF0000A3ED5A748001D016811F00C0FD4
:100F300008D00068C0F3810002280BD1D9F8000066
:100F4000400207D42868800716D5E068012800D140
:100F500012E033E1E068B8B10120C8F80000FFF703
:100F600085FD064605E000BFFFF780FD801B0228D7
:100F7000C0D828688007F7D52868216920F0F800D4
:100F800040EAC10028600DE0C8F800A0FFF76EFD40
:100F9000064604E0FFF76AFD801B02281FD8286878
:100FA0008007F7D42078000722D5864F87486169EB
:100FB000703771B101210160FFF758FD064604E06A
:100FC000FFF754FD801B022809D838688007F7D541
:100FD0000EE0C0F800A0FFF749FD064605E082E0FC
:100FE000FFF744FD801B02287DD838688007F7D4BE
:100FF0002078400768D5DFF8CCB100270BF13C0B17
:10100000DBF80000C0000BD4DBF8001041F0805189
:10101000CBF80010DBF80000012700F080500090B2
:101020006B4E3068C00510D4306840F4807030607A
:10103000FFF71CFD009005E0FFF718FD0099401A2E
:10104000022850D83068C005F6D55E4EA0686C36D0
:1010500001280FD00528306810D020F00100306042
:10106000306820F004003060A068B8B1FFF7FEFCE3
:1010700000900FE0306840F00100F4E740F0040019
:101080003060F7E7FFF7F2FC0099411A41F288302F
:10109000814266D830688007F4D50EE0FFF7E6FCA1
:1010A000009007E0FFF7E2FC0099411A41F2883016
:1010B000814256D830688007F4D42FB1DBF8001095
:1010C00021F08051CBF80010A069C8B33D49091D3B
:1010D0000968C1F3810102294AD00228504607D08D
:1010E000C8F8600000E03CE0FFF7C0FC04463BE0CD
:1010F0004746C8F86000FFF7B9FC064605E000BFA8
:10110000FFF7B4FC801B02282BD828688001F7D495
:10111000D4E907010843A16A2E4A490802EB0141BC
:10112000626A41EA8211084394F82C1040EA016196
:10113000C9F8001001203866FFF798FC044606E065
:101140003EE000BFFFF792FC001B022809D8286888
:101150008001F7D534E000BFFFF788FC001B0228B0
:1011600002D90320BDE8F88F28688001F4D427E075
:101170000128F7D0D9F80000E26900F4800191421B
:101180001CD1226A00F03F01914217D147F6C0718D
:10119000626A0140B1EB821F10D1A26A4FF0FF33A7
:1011A00000F4403103EB5202B1EB024F06D194F848
:1011B0002C1000F07060B0EB016F01D00120D1E77E
:1011C0000020CFE70438024000004742800E47422B
:1011D000007000400000FFFF7047704770B590F846
:1011E0003C20012A32D0012480F83C40022280F8C1
:1011F0003D2003685A689D6822F070060A683243F1
:101200005A60134B02689A4214D0B2F1804F11D049
:10121000104B9A420ED0104B9A420BD00F4B9A4271
:1012200008D00F4B9A4205D00E4B9A4202D00E4B7B
:101230009A4204D1496825F080031943916080F8EF
:101240003D40002180F83C10084670BD022070BD72
:10125000000001400004004000080040000C004075
:1012600000040140004001400018004010B5040097
:1012700003D094F83D0010B107E0012010BD00201C
:1012800084F83C00204600F01FF8022084F83D005E
:10129000211D206801F024FC012084F8460084F818
:1012A0003E0084F83F0084F8400084F8410084F850
:1012B000420084F8430084F8440084F8450084F830
:1012C0003D00002010BD000008B501682A48814299
:1012D00027D12A48016841F001010160006800221D
:1012E00000F00100009005211820FFF74BFC1820AA
:1012F000FFF73AFC002205211920FFF743FC1920D3
:10130000FFF732FC002205211A20FFF73BFC1A20D0
:10131000FFF72AFC002205211B20FFF733FC1B20CE
:1013200015E01648001FB1F1804F14D0144A9142C5
:1013300020D1016841F0040101600068002200F042
:101340000400009005211E20FFF71CFC1E20BDE8B4
:101350000840FFF709BC016841F001010160006825
:10136000002200F00100009005211C20FFF70AFC7C
:101370001C20ECE708BD000000000140443802409A
:101380000008004090F83D10012901D0012070476D
:10139000022180F83D1000681149884214D0B0F154
:1013A000804F11D00F4988420ED00F4988420BD090
:1013B0000E49884208D00E49884205D00D4988421E
:1013C00002D00D49884204D1816801F00701062945
:1013D00003D0016841F00101016000207047000066
:1013E000000001400004004000080040000C0040E4
:1013F00000040140004001400018004090F83D10FA
:10140000012901D001207047022180F83D100168B8
:10141000CA6842F00102CA6000681149884214D0CB
:10142000B0F1804F11D00F4988420ED00E4988424A
:101430000BD00E49884208D00D49884205D00D498D
:10144000884202D00C49884204D1816801F007012A
:10145000062903D0016841F00101016000207047B6
:10146000000001400004004000080040000C004063
:101470000004014000400140001800400168CA68B3
:1014800022F00102CA6001680A6A41F211131A428D
:1014900007D10A6A9B101A4203D10A6822F001029E
:1014A0000A60012180F83D100020704770B50446A5
:1014B00090F83C000025012817D0012684F83C60F4
:1014C000022084F83D002068826822F0770222F42E
:1014D0007F4282600868502838D00DDC20284FD029
:1014E00005DC90B3102811D14AE0022070BD3028ED
:1014F00046D040280AD13BE060282FD070280DD07C
:10150000B0F5805F03D0B0F5005F12D0012584F8FC
:101510003D60002084F83C00284670BDCB68D1E9CE
:101520000121206801F040FB2068816841F07701CB
:1015300009E0CB68D1E90121206801F035FB206882
:10154000816841F480418160E1E719E0CA68496837
:10155000206801F03BFB5021206806E0CA6849681A
:10156000206801F044FB6021206801F027FBCEE7F2
:10157000CA684968206801F029FB40212068F4E727
:10158000226801461046F0E7704770B504460068CF
:1015900001694FF00005C943890715D4C168C943E3
:1015A000890711D4E91E0161012020772068806934
:1015B0008007204602D0FFF7E7FF04E000F098F82C
:1015C000204600F096F8257720680169C94349074D
:1015D00017D4C168C943490713D46FF004010161EE
:1015E000022020772068806910F4407F204602D0D6
:1015F000FFF7CAFF04E000F07BF8204600F079F81E
:10160000257720680169C943090716D4C168C94311
:10161000090712D46FF008010161042020772068C7
:10162000C0698007204602D0FFF7AEFF04E000F05B
:101630005FF8204600F05DF8257720680169C9430E
:10164000C90617D4C168C943C90613D46FF0100185
:101650000161082020772068C06910F4407F20468F
:1016600002D0FFF791FF04E000F042F8204600F0BE
:1016700040F8257720680169C943C90708D1C168C6
:10168000C943C90704D1891E0161204600F032F820
:1016900020680169C943090609D4C168C94309061C
:1016A00005D46FF0800101612046FFF795FD2068A9
:1016B0000169C943490609D4C168C943490605D42B
:1016C0006FF040010161204600F050F82068016988
:1016D000C94389060BD4C168C943890607D46FF092
:1016E000200101612046BDE87040FFF776BD70BD66
:1016F0007047704770B5054616480026164C85425F
:101700000CD12088401C80B22080B0F5FA7F05D132
:101710004FF400511148FFF79BF92680104885428D
:101720000ED16088401C80B2A0F598516080883945
:1017300006D10B48FFF7A2FE0A4901200870668017
:1017400009492868884203D1BDE87040FFF794B981
:1017500070BD0000040600200000002000080240C8
:10176000BC050020C40200200020004070477047E4
:1017700070470000F8B5016804460868CA684B69FC
:1017800010F00F0F4FF0000559D003F0010602F4DE
:101790009077374365D0C10705D0D10503D5216CBB
:1017A00041F001012164410705D5D90703D0216C1F
:1017B00041F002012164810705D5D90703D0216CCE
:1017C00041F004012164010707D502F020013143F3
:1017D00003D0216C41F008012164216C00293AD02A
:1017E000800604D5900602D5204601F060FA2068F4
:1017F0004069216CC0F38010090700D460B3204613
:1018000001F02EFA20684069400621D52068143086
:1018100050E8001F21F0400140E80012002AF5D1F5
:10182000A06BA8B16C490165A06BFEF794FF00287E
:1018300011D0A06B016D01B0BDE8F04008478306F0
:101840000FD593060DD52046BDE8F84001F02FBA1C
:101850002046FFF78DFFF8BD2046FFF789FF25647E
:10186000F8BD266B2023012E79D1C60677D5D60682
:1018700075D50868486800904869400640D5A16B56
:10188000086840680004000CEAD0A28D8242E7D9C3
:10189000E085C869B0F5807F2DD020680C3050E815
:1018A000001F21F4807140E80012002AF5D1206861
:1018B000143050E8001F21F0010140E80012002A16
:1018C000F5D12068143050E8001F21F0400140E8B5
:1018D0000012002AF5D184F83E30256320680C30D0
:1018E00050E8001F21F0100140E80012002AF5D155
:1018F000A06BFEF7E7FEA08DE18D401A81B229E0D2
:10190000A08DE18D401A81B2E08D0028A8D0002979
:10191000A6D020680C3050E8002F22F4907240E8E6
:101920000026002EF5D12068143050E8002F22F058
:10193000010240E80026002EF5D184F83E302563F0
:1019400020680C3050E8002F22F0100240E80023FD
:10195000002BF5D12046FFF70AFFF8BDFFE705068B
:101960002BD5150629D594F83D002128F5D1A0687E
:10197000B0F5805F01D12069B0B1206A411C2162BD
:10198000216800784860E08C401E0004000CE08470
:10199000E3D12068C16821F08001C1602068C1687E
:1019A00041F04001C160D8E7206A0088C0F3080018
:1019B0004860206A801C2062E5E74006CDD55006CD
:1019C000CBD5CA68204622F04002CA6084F83D3078
:1019D00000F098FAC1E70000512C000870B504002F
:1019E00004D094F83D00002510B106E0012070BD40
:1019F00084F83C50204600F023F8242084F83D0071
:101A00002068C16821F40051C160204601F0B0F99E
:101A10002068016921F4904101612068416921F049
:101A20002A0141612068C16841F40051C160256408
:101A3000202084F83D0084F83E00002070BD0000A6
:101A4000F0B587B0044614216846FEF76AFD514898
:101A50004F4F256800224F491038022303240826DF
:101A6000BD4220D10D6845F080450D60096801F048
:101A700080410591016841F010010160006802ADEC
:101A800000F010000590E001CDE9000385E8540066
:101A900069464148FEF7C2FE002205215220FFF7A9
:101AA00071F8522024E0DFF8F4C00727654523D100
:101AB0000D6845F400350D60096801F400310591A9
:101AC000016841F001010160006802AD00F0010011
:101AD00005900C20CDE9000385E894006946304864
:101AE000FEF79CFE002205212620FFF74BF826205A
:101AF000FFF73AF807B0F0BDDFF8A8C0654521D17F
:101B00000D6845F480250D60096801F48021059178
:101B1000016841F002010160006802AD00F00200BE
:101B200005904FF44060CDE9000385E894006946D4
:101B30001D48FEF773FE002205212720FFF722F83B
:101B40002720D5E719498D42D4D11249091D0D68C6
:101B500045F020050D60096801F02001059101683C
:101B600041F004010160006802AD00F0040005903E
:101B7000C020CDE9000385E8540069460C48FEF713
:101B80004DFE002205214720FEF7FCFF4720AFE76E
:101B900000780040403802400010024000440040FD
:101BA00000000240004800400004024000140140D0
:101BB000000802402DE9F84F044690F83E009A468E
:101BC00016460D46202853D1FDB1F6B194F83C00DD
:101BD00001284DD0012084F83C00002727642220F2
:101BE00084F83E002763FEF741FFA6858146E6851F
:101BF000A0684FF48058404501D1206940B12E467D
:101C00005FF0000584F83C7027E00120BDE8F88F04
:101C10000026F7E74B46002220212046CDF800A001
:101C200001F049F908B10320F0E726B1A06840456A
:101C30001BD038B108E020684068C0F3080025F8E0
:101C4000020B07E0206980B12068406800F07F0047
:101C500006F8010BE08D401EE085E08D0028D9D10B
:101C6000202084F83E000020D0E720684068EFE79D
:101C70000220CBE790F83E30202B0ED159B152B163
:101C800090F83C30012B08D0012380F83C30002331
:101C9000036301F0F3B80120704702207047000091
:101CA0002DE9F041564988427DD1564C0126204607
:101CB000A179007A41B101290AD002290CD0032967
:101CC0000FD0042912D090E0AA2800D1A6718CE090
:101CD000BB2805D1022002E0CC2801D10320A0714D
:101CE00083E060720420A071A0727EE0464DA17A6C
:101CF0006854491CC8B2A072617ACA1C904274D15F
:101D00000520A071AA202870BB206870CC20A87084
:101D1000E9702846891C00F025FEA17A294411F8B3
:101D2000011C884261D1E67128790027012853D12E
:101D300041033648FEF78CFE05F18A00697901708F
:101D4000A9794170297ACA08D20705D0EA79A2F5A3
:101D5000803242EA012101E0B5F807104160A97A1A
:101D6000CA08D20705D06A7AA2F5803242EA012178
:101D700001E0B5F809108160E97A0173A989C18190
:101D800090ED010A9FED221AF8EEC00A80EE810A5A
:101D900084ED120AD0ED020AF8EEE01AC1EE810AD3
:101DA000C4ED130A00E028E0B7EE081A60EE810ADD
:101DB000FEF734FCE07801280ED1E07A18B96761AB
:101DC000A761E761E672104826300069A0630E48FB
:101DD0004630006940426063A771A77267726671FE
:101DE000267310210848FEF77AFBBDE8F04105494B
:101DF000012208310248FFF73DBFBDE8F081000035
:101E000094070020C4020020BA45002000080240C8
:101E10000000C8422DE9F843044690F83D001F46F3
:101E200016460D4620284CD1C5B1BEB194F83C00F1
:101E3000012846D0012084F83C004FF00008C4F887
:101E40004080212084F83D00FEF710FEA6848146E4
:101E5000E684A068B0F5805F03D004E00120BDE80F
:101E6000F883206928B12E465FF0000584F83C8095
:101E70000EE00026FAE78021204601F01CF8A0B908
:101E8000AEB116F8010B21684860E08C401EE0847A
:101E9000E08C4B464FF0000200970028EBD14FF04A
:101EA0004001204601F007F830B10320D7E735F8AC
:101EB000020BC0F30800E6E7202084F83D00002074
:101EC000CDE70220CBE790F83D30202B18D1A9B107
:101ED000A2B190F83C30012B12D001628284C284FE
:101EE00000210164212280F83D2080F83C10006828
:101EF000C16841F08001C160002070470120704737
:101F000002207047704700002DE9F05F644C65497E
:101F100040F26C7C60880522A0F2DC504861E088C9
:101F2000A0F2DC508861A088A0F2DC50C861A089D2
:101F3000086263894B62604501DD8A62CA62A0F271
:101F400079554FF4F9794D4502D80A25C1E90A526D
:101F50004FF4966A504502DA1420C1E90A02524D44
:101F600088464FF4006B634509DD00225946284638
:101F7000FEF776FD002269152846FEF771FDD8F8B8
:101F80002400A0F27950484509D800225946284635
:101F9000FEF766FD012251022846FEF761FDD8F8E2
:101FA0002400504509DA012259462846FEF758FD1B
:101FB000012251022846FEF753FDE289444640F2D1
:101FC0000E63C8F83020394800254FF001084FF45F
:101FD00080519A4208DD0022FEF742FDE570E5726D
:101FE0006571207940B11CE00122FEF739FD84F8CB
:101FF00003802571BDE8F09F29489FED2D0AA4308C
:102000004560856084ED120A643884ED130A056129
:102010002030056120304583C5832582E58184F821
:1020200004806069642806D0A16AC0F1000700FB43
:1020300001F607FB01F700F16400C82801D800266B
:102040003746C4E90D76A169642909DDE06A6FF0BD
:102050001802504306EB800207EB8000C4E90D0232
:1020600011F1640F0ADAE06A00EBC00101EB001025
:1020700006EB800107EB8000C4E90D01E069B0F5D3
:10208000E17F02DD4FF49671E16310F5E17F01DA43
:102090000849E1636330C728ACD2E563AAE70000D2
:1020A000A0450020C40200200010024000080240A9
:1020B00000000000D4FEFFFFFEE70000054C0025F5
:1020C0002089012802D100F0F9F92581012001F0D1
:1020D0004BF8F5E70400002010B59CB01C2216490F
:1020E0006846FEF7CAF90021684601F049F8134C2A
:1020F00011491C22E0601C3107A8FEF7BEF900213F
:1021000007A801F03DF80C4920611C2238310EA8C7
:10211000FEF7B3F900210EA801F032F8064960611C
:102120001C22543115A8FEF7A8F9002115A801F0CA
:1021300027F8A0611CB010BDE8450008040000208D
:102140002DE9F04F87B014216846FEF7EAF94548BB
:102150000024016841F004010160016801F00401FC
:102160000591016841F080010160016801F0800182
:102170000591016841F001010160016801F0010170
:102180000591016841F010010160016801F0100142
:102190000591016841F002010160016801F002014E
:1021A0000591016841F0080101600068DFF8B8900E
:1021B00000F008004FF4405505900022294648469B
:1021C000FEF74EFCDFF8A4A04FF420660022314653
:1021D0005046FEF745FCDFF898B0AF0000223946C4
:1021E0005846FEF73DFC48F230080022414621489F
:1021F000FEF736FC00950125CDE9015469464846B5
:102200000394FEF70BFB0096CDE901546946504656
:102210000394FEF703FB0097CDE901546946584645
:102220000394FEF7FBFAA80200904FF40410CDE9E6
:10223000010469460F48FEF7F1FACDF80080CDE9B8
:10224000015469460B480394FEF7E8FA0022052181
:102250002820FEF797FC2820FEF786FC07B0BDE893
:10226000F08F0000303802400008024000100240A9
:1022700000040240000C024010B586B0002417484C
:10228000009401940294039404941349059401600A
:10229000B321C0E901144FF6FF71C0E90314446192
:1022A0008461FEF7E3FF08B1FEF70AFA4FF48050AD
:1022B000009069460948FFF7F9F808B1FEF700FAFF
:1022C000049404A905480594FEF788FF002801D06E
:1022D000FEF7F6F906B010BD0000014074050020BD
:1022E00010B586B00024164800940194029403941B
:1022F00004944FF08041059401605921C0E9011414
:1023000040F2E731C0E903148461FEF7AFFF08B182
:10231000FEF7D6F94FF48050009069460848FFF761
:10232000C5F808B1FEF7CCF9049404A90448059453
:10233000FEF754FF002801D0FEF7C2F906B010BD29
:10234000BC05002010B586B0002417480094019405
:102350000294039404941349059401605921C0E93F
:10236000011440F2E731C0E903148461FEF77EFFF7
:1023700008B1FEF7A5F94FF48050009069460A486D
:10238000FFF794F808B1FEF79BF9049404A90648F6
:102390000594FEF723FF002801D0FEF791F906B05F
:1023A00010BD0000000800400406002010B5104CCD
:1023B0000E484FF4806120604FF4165060604FF477
:1023C0008050A0600020C4E903010C21C4E905107D
:1023D000E0612046FFF702FB08B1FEF771F92068C3
:1023E000C16821F04001C16010BD000000780040CC
:1023F0000C07002010B5104C0E484FF4806120608F
:102400004FF4165060604FF48050A0600020C4E983
:1024100003010C21C4E90510E0612046FFF7DEFA54
:1024200008B1FEF74DF92068C16821F04001C16094
:1024300010BD000000440040500700200C4810B5BB
:102440000A4901604FF4E1314160002181600C22B2
:10245000C160C0E904128161C161FFF7BFFA0028C1
:1024600003D0BDE81040FEF72BB910BD0048004076
:102470009407002010B5104C0E484FF48061206086
:102480004FF4165060604FF48050A0600020C4E903
:1024900003010C21C4E90510E0612046FFF79EFA14
:1024A00008B1FEF70DF92068C16821F04001C16054
:1024B00010BD000000140140D807002070B5664828
:1024C0002DED088BB0F9000001F013FE9FED638B3A
:1024D00053EC182B01F086FC01F0AAFB09EE100A60
:1024E000604880ED009A6048B0F9000001F001FEFC
:1024F00053EC182B01F076FC01F09AFB08EE900AE1
:1025000058482030C0ED008A9FED588A29EE080A0D
:1025100010EE100A01F0ECFF9FED55AB53EC1A2BB7
:1025200001F0B8FB01F0B6FD01F0E3FD9FED52BBF9
:1025300053EC1B2B01F056FC01F07AFB28EE880AC5
:1025400009EE900A10EE100A01F0D2FF53EC1A2B9C
:1025500001F0A0FB01F09EFD01F0CBFD53EC1B2B25
:1025600001F040FC01F064FB39EE280AF6EE000AA7
:102570000AEE100A3B4C20EE200A403420EE080AF6
:10258000BDEEC00A10EE100A39EE680A05B2658386
:1025900010EE100A01F0ACFF9FED391B53EC112B2C
:1025A00001F020FC53EC1B2B01F0BAFD01F072FD91
:1025B00029EE880A03B2E383BDEEC00A10EE100ACA
:1025C0002AEE080A02B23048BDEEC00A028210EEBE
:1025D000101A09B2C18190ED130AB5EEC00AF1EEEE
:1025E00010FA08D0002A02DA521E028203E0002903
:1025F00001DA491EC1811B4CAA21163C2A0A21700E
:10260000BB216170CC21A1701221E17011212171D7
:1026100000216171A171E17125726272A3721A0ABF
:10262000E272C2892273120A6273008AA073000ADE
:10263000E07321746174A1740A20E07414212046AF
:1026400000F090F920752146BDEC088B1522BDE8FD
:1026500070400E48FFF737BC060000200000000065
:1026600000D8B840E0450020040000200000C84227
:10267000000000000000E03F0000000000005940A2
:10268000E17A14AE47E1DA3FC4020020940700204B
:10269000FEE7FEE72DE9F05FDFF874A001240627CE
:1026A000AAF800400646AAF802700025AAF80450CD
:1026B0004FF0400BAAF806B0C6F3072900F0FF0858
:1026C000AAF80890AAF80A8039465046FDF78EFF0E
:1026D000010AC2B20F4876B1AAF80C20AAF80E106F
:1026E00004704770857080F803B080F8049080F81B
:1026F0000580827109E00470477085704421C170C3
:1027000005714471082181711F21C171BDE8F09FDD
:1027100066450020AF0000202DE9F05FDFF874A0CF
:1027200001240627AAF800400646AAF802700025F0
:10273000AAF804504FF0400BAAF806B0C6F30729D8
:1027400000F0FF08AAF80890AAF80A803946504617
:10275000FDF74CFF010AC2B20F4876B1AAF80C206F
:10276000AAF80E1004704770857080F803B080F8E6
:10277000049080F80580827109E0047047708570CC
:102780004421C17005714471082181711F21C171FB
:10279000BDE8F09F54450020A50000202DE9F05F22
:1027A000DFF878A001250626AAF800500446AAF80A
:1027B00002600027AAF804704FF0400BAAF806B098
:1027C000C4F3072900F0FF08AAF80890AAF80A80C5
:1027D00031465046FDF70AFF010AC2B2104874B1F3
:1027E000AAF80C20AAF80E1005704670877080F8C1
:1027F00003B080F8049080F8058082710BE00570CA
:10280000467087704221C17003210171E721417137
:10281000692181716421C171BDE8F09F7845002074
:10282000B9000020F0B50B4C0022154623780A7041
:102830002678B3420CD1002B0AD0074E03E0B75CD8
:102840008754521CD2B29A42F9D32078087025706E
:10285000F0BD0000200000204C060020F0B50B4C1D
:102860000022154663780A706678B3420CD1002BBB
:102870000AD0074E03E0B75C8754521CD2B29A428A
:10288000F9D3607808706570F0BD0000200000206A
:102890008C0600200A4610B501464FF47A730348AF
:1028A000FFF7B8FA02490020087010BD5007002059
:1028B000200000200A4610B501464FF47A73034801
:1028C000FFF7A8FA02490020487010BDD807002081
:1028D000200000200A4610B501464FF47A730348E1
:1028E000FFF798FA02490020887010BD0C070020FD
:1028F0002000002010B508210E48FFF7CBFF08216B
:102900000C48FFF7D7FF0520FDF738FF09490A48B3
:10291000491EFFF787FF0920FDF730FF05490648EC
:10292000491E0A38FFF79AFFBDE810400920FDF75D
:1029300025BF00009D000020944500200748352158
:102940009FED070A416080ED000A4FF40061B6EE8A
:10295000000A816080ED050A70470000844600206F
:102960007B14AE3D034610B50020024603E09C5C9C
:10297000521C2044C0B28A42F9DB10BD70B5144627
:102980000D46FFF787FE2846FFF7C6FE2046FFF7F5
:1029900005FF00F0F3FA00F017FB00F01BFBBDE8A9
:1029A00070400F20FDF7EABEFFF7AEFA012000F0FD
:1029B000DBFBF9E710B5502080F31188BFF34F8F90
:1029C000BFF36F8F01F06CF818B104494FF08050DD
:1029D0000860002080F3118810BD000004ED00E0C5
:1029E00030B593B030216846FDF79BFD14210CA84B
:1029F000FDF797FD1F480025016841F080510160F7
:102A0000006800F0805011901B48016841F440417B
:102A100001600068022400F4404011900120009001
:102A2000000401908001CDE9064008AA0420B421E9
:102A300082E813000B906846FEF718FA08B172B6E8
:102A4000FEE7FEF7D1F808B172B6FEE70CA90F2039
:102A500081E831004FF4A0500F904FF48050109057
:102A600005210CA8FEF7F8F8002801D072B6FEE7A1
:102A700013B030BD40380240007000400248016889
:102A800041F470010160704788ED00E00148FEF7F5
:102A90007CBD0000740500200148FEF776BD0000F3
:102AA000740500200148FEF770BD00007405002089
:102AB0000148FEF76ABD0000740500200148FEF7DA
:102AC00064BD0000BC0500200148FEF75EBD0000AB
:102AD000040600200148FEF758BD00001C08002035
:102AE000F0B50268254C264D264E274F274B4FF058
:102AF000804CA04209D0604507D0A84205D0B04222
:102B000003D0B84201D0984204D122F0700E4A6836
:102B100042EA0E02A0421BD0604519D0A84217D04D
:102B2000B04215D0B84213D0984211D0184DA842E7
:102B30000ED0184DA8420BD0174DA84208D0174D03
:102B4000A84205D0164DA84202D0164DA84203D186
:102B500022F44075CA682A434D6922F080022A4354
:102B600002608A68C2620A688262A04201D098420A
:102B700001D10969016301214161F0BD00000140FB
:102B80000004004000080040000C00400004014028
:102B9000004001400044014000480140001800404E
:102BA000001C00400020004010B5846842EA032267
:102BB00024F47F440A432243826010BD826822F0DD
:102BC00070020A4342F007018160704710B5036A42
:102BD000046A24F001040462846924F0F00444EAE5
:102BE000021423F00A020A438461026210BD10B588
:102BF000036A23F0100303628369046A23F47043B9
:102C000043EA023224F0A00343EA01118261016227
:102C100010BD00000C4808B500680068C04380067D
:102C200011D44FF6FF73012269460748FEF7C2FF31
:102C300006488178402906D2034B9DF80020403B8E
:102C40005A54491C817008BD0C0700202000002048
:102C500010B5806B0021C185C184FEF789FD10BDD0
:102C600001680C3151E8002F22F4907241E80023F2
:102C7000002BF5D10168143151E8002F22F0010238
:102C800041E80023002BF5D1016B012909D101682E
:102C90000C3151E8002F22F0100241E80023002BF4
:102CA000F5D1202180F83E1000210163704708B55E
:102CB00090F83E10222901D0022008BD82684FF40E
:102CC00080539A4201D1016921B1816A9A421BD095
:102CD0004AB10AE00268816A5268C2F308020A80B7
:102CE000816A891C08E0026972B10268526802F0C8
:102CF0007F020A70816A491C8162C18D491E0904E4
:102D0000090CC18503D019E002685268F1E7016837
:102D1000CA6822F02002CA600168CA6822F4807280
:102D2000CA6001684A6922F001024A61202180F8E4
:102D30003E10016B012903D0FEF7B2FF002008BD51
:102D40000021016301680C3151E8002F22F01002CC
:102D500041E80023002BF5D101680A68D20602D5AC
:102D60000A6849680091818DFEF701FDE6E70000E1
:102D700070B5044600680169E26821F440511143CE
:102D800001612169A068E269084361691143084350
:102D90002168CA6849F20C639A430243CA602068FA
:102DA0004169A26921F440711143416131492068B0
:102DB000884202D03049884202D1FEF717F801E07C
:102DC000FEF704F8E2690023192164253226B2F5E2
:102DD000004F626828D0A0FB0101930F9200FDF71D
:102DE000D5FA0146B0FBF5F06FF01802504301EB45
:102DF000800006EB0010B0FBF5F000F0F002B1FB34
:102E0000F5F002EB0012B1FBF5F06FF01803584338
:102E100001EB800006EB0010B0FBF5F000F00F00B6
:102E200021681044886070BDA0FB010192185B41CD
:102E3000FDF7ACFA0146B0FBF5F00201B1FBF5F08D
:102E40006FF01803584301EB800006EBC000B0FBA5
:102E5000F5F000F0F80002EB4002B1FBF5F058434A
:102E600001EB800006EBC000B0FBF5F000F00700BE
:102E7000D6E7000000100140001401408162828505
:102E8000C28500210164222280F83E2080F83C1097
:102E9000016921B10168CA6842F48072CA600168A0
:102EA0004A6942F001024A610068C16841F02001AC
:102EB000C160002070472DE9F041984617460E4644
:102EC0000446069D27E0681C25D02DB1FDF7CEFDF8
:102ED000A0EB0800A8421ED920680C3050E8001F63
:102EE00021F4D07140E80012002AF5D12068143096
:102EF00050E8001F21F0010140E80012002AF5D13E
:102F0000202084F83D0084F83E00002084F83C0036
:102F10000320BDE8F0812068006836EA000004D094
:102F20000020B842CFD00020F3E70120F9E70000ED
:102F30000C4808B500680068C043800610D44FF6FE
:102F4000FF73012269460748FEF734FE0648017800
:102F5000402905D2054B9DF800205A54491C0170A8
:102F600008BD000050070020200000204C06002073
:102F70000148FEF7FFBB000094070020082101482C
:102F8000FFF788BCAF0000200C4808B50068006857
:102F9000C043800610D44FF6FF73012269460748EC
:102FA000FEF708FE06484178402905D2054B9DF8FA
:102FB00000205A54491C417008BD0000D807002069
:102FC000200000208C06002008210148FFF772BC79
:102FD000A500002008210148FFF77CBCB9000020B3
:102FE000FEE700000B4C0C4E0C4FDFF83480002540
:102FF0004FF00109E08840B932683968D8F800001C
:10300000FFF7BCFCA4F80690A580012000F0ACF806
:10301000F0E700000400002000030020F802002078
:10302000FC0200200026104C4FF6FF770125A088F7
:10303000A8B9FFF75FFC09210C4800F077F8608021
:1030400009210B4800F072F800B22080011201D073
:10305000381A00E040422080A580E68025810120CA
:1030600000F082F8E3E7000004000020944500200F
:103070008A4500200907090E002804DB00F1E02042
:1030800080F80014704700F00F0000F1E02080F895
:10309000141D7047FDF7F8FCFFF7A2FCFFF750F88E
:1030A000FFF750F9FFF7E8F8FFF7C8F9FFF7E2F983
:1030B000FFF7A0F9FFF77AF9FFF712F91148FEF7C9
:1030C0009DF911480068C16841F02001C1600F48B6
:1030D0000068C16841F02001C1600D480068C16806
:1030E00041F02001C1600B48FEF74CF901220A496A
:1030F0000A48FEF7BFFDFEF7EFFF00F03CF8FFF7D0
:103100001DFCFEE70406002050070020D807002021
:103110000C07002074050020CC020020940700203A
:1031200001460020842900D0C81C704770B50446B1
:1031300000780D46012810D1607803280DD1204673
:10314000FDF754FA6219010A12F8023CC0B2834238
:1031500003D012F8010C884201D1002070BDA07983
:10316000617900EB012070BD10B500B9012000F0BD
:1031700033FB002010BD10B500F054FB002010BD43
:103180007FB50D4604464169B0F9080081B1A169D7
:1031900071B1FFF7C5FFD4E905128DE80700D4E946
:1031A00000102B46226900F050FC039004B070BD63
:1031B000FFF7B6FF03A9CDE90001208A2B4682B2B2
:1031C000D4E9001000F014FC012801D00020EDE744
:1031D0000398EBE72DE9F041184C0F460546E668E9
:1031E0002068001D00F030FA38B9206890F82C10E3
:1031F00001208840216981432161681C07D137B1D2
:103200002168BDE8F0410E48091D00F061BA206850
:103210003544B5424560216805D2A06BBDE8F04158
:10322000091D00F03DBA606B091D00F039FAA06A73
:10323000854200D2A562BDE8F08100003400002084
:10324000400900202DE9F041054600F04DFA2E4CD2
:10325000A068401CA06020682C4F10B1606940B38A
:103260002DE02560A068012829D1002606EB860004
:1032700007EB800000F006FA761C072EF6D32348F1
:103280008C3000F0FFF92148A03000F0FBF91F4816
:10329000B43000F0F7F91D48C83000F0F3F91B48CE
:1032A000DC3000F0EFF919488C3060631430A06313
:1032B00005E02068E96AC06A884200D82560606A33
:1032C000401C6062E96A0120226988401043206145
:1032D00001EB810007EB8000291D00F0F9F900F0F7
:1032E00023FA606900280CD02068E96AC06A884225
:1032F00007D207494FF080500860BFF34F8FBFF3EC
:103300006F8FBDE8F08100003400002064080020C9
:1033100004ED00E010B5044690F8510058B10128C2
:103320000CD002280FD0502080F31188BFF34F8FAC
:10333000BFF36F8FFEE7206B00F00AFA2046BDE86E
:10334000104000F005BA10BD10484FF4705142070C
:1033500006D0C01D0D4920F00700411AC1F570517B
:103360000B4A00230144C2E900030839183A21F04E
:10337000070111604B600B600B1AC0E900139360EA
:103380004FF0004053605061704700005409002026
:1033900088000020144E154CA6F1C8074FF0805845
:1033A000DFF84C9012E000BF00F09EF9F068C568AD
:1033B000281D00F049F9A068401EA0606068401E0A
:1033C000606000F0B1F92846FFF7A4FF60680028AC
:1033D000EAD138680128F9D9C9F80080BFF34F8FC6
:1033E000BFF36F8FF2E700002C09002034000020AB
:1033F00004ED00E02DE9F0479A46DDE909848146B5
:103400006FF00303206B03EB82021044089E20F050
:103410000707780707D0502080F31188BFF34F8F3C
:10342000BFF36F8FFEE7002561B1002023180A5C0F
:1034300083F834200A5C12B1401C1028F6D384F8BB
:10344000435001E084F83450072E00D30626E6628C
:10345000C4E91165201D00F020F904F1180000F006
:103460001CF92461C6F107006462A061E56484F878
:10347000505052464946384600F0C0F82060B8F136
:10348000000F01D0C8F80040BDE8F08730B5114901
:1034900000E011460A688242FBD34B685C18844204
:1034A00003D1406818444860084643681C18944299
:1034B00009D1084C183C2468A24209D052681A4429
:1034C00042600A6812680260814200D0086030BD24
:1034D0000460F9E7880000200648416B096829B1BB
:1034E000416BC968C9684968816270474FF0FF3114
:1034F000FAE700003400002008484068401C4FF004
:10350000500080F3118804D0BFF34F8FBFF36F8F4B
:10351000FEE7BFF34F8FBFF36F8FFEE790000020F1
:103520002DE9F0410546002700F0B2F9324E30682F
:1035300008B9FFF709FF706905424ED1C5B30835D8
:1035400068070ED005F00700C0F1080005446807C1
:1035500007D0502080F31188BFF34F8FBFF36F8FD8
:10356000FEE72DB37068854237D8234818300146EE
:103570000C6801E020460C466168A94202D221682D
:103580000029F7D131688C4227D007682168016093
:1035900060680837411B10290FD96019420708D00D
:1035A000502080F31188BFF34F8FBFF36F8FFEE77A
:1035B00013E041606560FFF769FF61687068401A59
:1035C0007060B268904200D2B06070690143002020
:1035D000C4E90001F068401CF06000F0C7FA780709
:1035E00007D0502080F31188BFF34F8FBFF36F8F48
:1035F000FEE73846BDE8F0817000002010B5031FDB
:103600004FF080741C601B1F21F001011960191F0D
:10361000044B0B6014390A60091F6FF00202443832
:103620000A6010BDF9340008B4EEE00AF1EE10FAB9
:1036300002D2B0EE600A7047B4EEC10AF1EE10FAA1
:10364000F9DDB0EE410A7047D0E9013201699A60B4
:10365000D0E901235A604A68824201D182684A60F7
:10366000002202610868401E086008687047000078
:10367000034B036003F15400086080201060704722
:103680002003002000F108014FF0FF32C0E90112D1
:10369000C160016100210160704700210161704734
:1036A00030B50B685A1C02D000F1080202E0026932
:1036B00004E02246546825689D42FAD953684B605D
:1036C00099608A60516008610168491C016030BDE1
:1036D00042684A6093688B609368596091600861A2
:1036E0000168491C01607047502080F31188BFF3C6
:1036F0004F8FBFF36F8F0A494868401C486001280C
:103700000CD10848006810F0FF0F07D0502080F35C
:103710001188BFF34F8FBFF36F8FFEE77047000034
:103720009000002004ED00E00849486828B1401EE0
:10373000486001D180F311887047502080F31188D0
:10374000BFF34F8FBFF36F8FFEE7000090000020A4
:1037500070B500282AD0164DA0F108046068696988
:10376000084207D1502080F31188BFF34F8FBFF379
:103770006F8FFEE722683AB1502080F31188BFF3C3
:103780004F8FBFF36F8FFEE78843606000F080F8D3
:1037900060686968084468602046FFF777FE28691A
:1037A000401C2861BDE8704000F0E0B970BD000029
:1037B000700000204FF0E020002101618161054987
:1037C0004FF47A720968B1FBF2F1491E4161072199
:1037D000016170473000002010B5020014D00F487E
:1037E000006B38B1502080F31188BFF34F8FBFF3C7
:1037F0006F8FFEE700F04CF800211046FFF7EAFC5F
:1038000000F0B4F9002807D105494FF08050086056
:10381000BFF34F8FBFF36F8F10BD00003400002047
:1038200004ED00E010B586B00024039405AA04A9B5
:1038300003A80494FFF71CFFDDE903010094CDE920
:10384000011000230EA11048059A00F0FEF80F4960
:103850000028C86211D0502080F31188BFF34F8F29
:10386000BFF36F8F4FF0FF30886201204861CC605A
:1038700006B0BDE8104000F041B806B010BD000031
:1038800049444C45000000009533000834000020F6
:103890000248016B491C016370470000340000209E
:1038A0001448016B11B10121C16170470021C16150
:1038B0000169B1FA81F1C1F11F0101EB81020E49E9
:1038C00051F822306BB101EB820101F108034A6823
:1038D00052684A609A4201D152684A60D1680160D8
:1038E0007047502080F31188BFF34F8FBFF36F8F65
:1038F000FEE7000034000020640800201CB53748B3
:103900000168374A914207D1502080F31188BFF3F4
:103910004F8FBFF36F8FFEE700683149491E884221
:1039200007D1502080F31188BFF34F8FBFF36F8F03
:10393000FEE72C4908780190FF20087008788DF880
:1039400000009DF800009DF8002000F0F00090427B
:1039500007D0502080F31188BFF34F8FBFF36F8FD4
:10396000FEE79DF80000204C00F05000207007207A
:10397000A06005E09DF8002052008DF80020401E58
:103980009DF800201206F5D4A060032807D050202F
:1039900080F31188BFF34F8FBFF36F8FFEE74FF4B3
:1039A0004070A060019808700C482030016841F414
:1039B00070010160016841F070410160FFF7FAFE9B
:1039C00000206060FCF786FC0848016841F0404137
:1039D0000160FCF76BFC00201CBD000000ED00E066
:1039E00071C20F4100E400E09000002034EF00E0DD
:1039F0002DE9FF5F8346DDE90E87994616468A4624
:103A00009000FFF78DFD05001CD05420FFF788FDC6
:103A1000040014D00020256384F85100CDE9024051
:103A2000CDE900874B46324651465846FFF7E2FC47
:103A30002046FFF707FC012004B0BDE8F09F2846B0
:103A4000FFF786FE4FF0FF30F6E7F0B585B0DDE911
:103A50000B640A9DA6B1DCB15427009726630226A9
:103A600084F85160002604AFCDE90246CDE9005745
:103A7000FFF7C0FC2046FFF7E5FB049805B0F0BD5A
:103A8000502080F31188BFF34F8FBFF36F8FFEE795
:103A9000502080F31188BFF34F8FBFF36F8FFEE785
:103AA0002DE9F0412F4C0026206B28B1A069401C65
:103AB000A0613046BDE8F081E5686D1CE56013D17A
:103AC000606B006838B1502080F31188BFF34F8FCE
:103AD000BFF36F8FFEE7606BA16B6163A063206A29
:103AE000401C2062FFF7F8FCA06ADFF87C8085426A
:103AF00009D3606B0068A0B1606BC068C768786864
:103B0000854211D2A0622068C06A00EB800158F89B
:103B10002100012800D90126E0690028C9D001262A
:103B2000C7E74FF0FF30EDE7381DFFF78DFDB86AAE
:103B300018B107F11800FFF787FDF96A0120226923
:103B400088401043206101EB810108EB8100391DA1
:103B5000FFF7BEFDF86A2168C96A8842C9D3012609
:103B6000C7E7000034000020640800202DE9F0477A
:103B70002C4D00242746286B38B1FFF7B5FD286B84
:103B8000401E2863286B40B146E0502080F3118826
:103B9000BFF34F8FBFF36F8FFEE7A968224E01205E
:103BA000D1B3A6F1B40980463068E8B1F068C468C2
:103BB00004F11800FFF748FD201DFFF745FDE06AFE
:103BC0002A6908FA00F11143296100EB800109EB31
:103BD0008100211DFFF77CFDE06A2968C96A8842DF
:103BE000E2D3C5F81C80DFE70CB1FFF775FCAC69C8
:103BF00044B14646FFF754FF00B1EE61641EF9D1AF
:103C00000020A861E86938B1084901273807086031
:103C1000BFF34F8FBFF36F8FFFF786FD3846BDE8C8
:103C2000F0870000340000201809002004ED00E0B7
:103C300021F00042A2F16052B2F5801F01F0004372
:103C400028BFD2F17F6C0BD95FEA001C43EAC202A5
:103C500042EB507018BF704728BF20F0010070473A
:103C6000B2F5801FBCBF184670474FEA410C1CF5E7
:103C7000001F02D2084600F0B1BC70B500F0FAFA9D
:103C800000000089FFF7F6BF4FF00040A0F580006C
:103C90007047000010B591EA030F48BF83F000435E
:103CA00000F14483841A71EB030C05D2121943EB23
:103CB0000C03001B61EB0C01DFF824E14FEA115407
:103CC000A4EB135C1EEA430F18BF9EEA445F73D057
:103CD00023EA0E03DCF1200E21EA045143F48013A1
:103CE00032D322FA0CFE10EB0E0023FA0CFE41EB4D
:103CF0000E01CCF1200E03FA0EFE10EB0E0051F176
:103D00000001B1F5801FCCF1200E32D201EB04513D
:103D100012FA0EF2BDE8104058BF7047401C38BF81
:103D20005FEA420218BF7047002814BF20F001006C
:103D300041F100014FEA410313F5001F38BF7047FE
:103D4000A1F1C04100F0E4BA012A43EB0302ACF157
:103D5000200CDCF11F0E32BF4FF0000E23FA0CF3E3
:103D600010EB030041EB0451B4EB115FD0D0A1EB99
:103D7000045101F5801149085FEA300001EB04515C
:103D80000ED350F1000038BF12FA0EFE08D1BDE884
:103D90001040C9E7401C38BF5FEA4202CAD1C3E7FE
:103DA000BDE810404FEA410313F5001F38BF7047CC
:103DB000A1F1C04100F0ACBA9EEA445F08D011EA1C
:103DC0005E0FBDE8104004BF01F0004100207047C5
:103DD000BDE8104070B500F04DFA00BF64FBBE3E78
:103DE0000000E0FF2DE9C04130B4DFF8A0C23CEA9A
:103DF000111418BF3CEA131400F0EC8081EA0305AB
:103E00001CEA111444EAD57418BF1CEA131500F01B
:103E1000C780A4EB05044FF0004545EAC12145EAFF
:103E2000C32341EA505143EA525304F17F7499424B
:103E300004F500344FEAC0204FEAC22208BF904286
:103E400000F09C804FEA13650FF24016765D4FEA52
:103E5000134506FB05F7C7F1807706FB07F74FEA26
:103E6000D737A7FB03687642C8F58038A7FB06CE94
:103E700038BFA8F1010807FB08E64FF0000EA6FBCB
:103E8000028CE6FB03CEDCF1000CCEF1004E38BF15
:103E9000AEF1010EA6FB0C584FF000074FF00005E5
:103EA000E6FB0E87A1FB08C6A0FB07CE16EB0E06AD
:103EB00045F10005E1FB076515F1E04E7EBFA4F575
:103EC00080345FEA46066D4116F1800745F1000532
:103ED0004FEA17274FEA066647EA0567A6F1DE466E
:103EE000B6F1805F4FEA15251FD9384624F0010C42
:103EF00005EBC471BCF1FE6F01EB0C1102D8F0BCF4
:103F0000BDE8008124425CBF01F5801E9EEAC47FAB
:103F100002D4F0BCBDE80081244238D4F0BCA1F149
:103F2000C041BDE8004100F0F3B94FEAD22242EAB5
:103F300043524FEAD323A7FB02864FEAD02040EA40
:103F4000415007FB03661EEA0E0F4FEAD12105FB25
:103F5000026658BFA6EB0056B6EB00564FEA520E6B
:103F60004EEAC37E18EB0E0E56EB530EBDD518EB82
:103F700002085E417F1C55F10005B6E74FF480153D
:103F80004FF000074FF000064FF00008ADE7F0BC1F
:103F90004FF0000001F1C04101F00041BDE8008197
:103FA00011EA0C1F0CEA131500D00CE013EA0C1FE9
:103FB00000F025804FF00000F0BC81EA030101F021
:103FC0000041BDE80081F0BCBDE8004181EA030189
:103FD00000F09EB9F0BCBDE8004170B500F04AF9B0
:103FE000097EFC3E00F007B881EA03014FF00000B3
:103FF00001F00041704781EA030100F089B9F0BC8B
:10400000BDE800414FF0000021497047FFFDFBF97A
:10401000F7F5F4F2F0EEEDEBE9E8E6E4E3E1E0DEFB
:10402000DDDBDAD8D7D5D4D3D1D0CFCDCCCBCAC86D
:10403000C7C6C5C4C2C1C0BFBEBDBCBBBAB9B8B794
:10404000B6B5B4B3B2B1B0AFAEADACABAAA9A8A887
:10405000A7A6A5A4A3A3A2A1A09F9F9E9D9C9C9B55
:104060009A99999897979695959493939291919000
:104070008F8F8E8E8D8C8C8B8B8A89898888878791
:104080008685858484838382828181800000FF0706
:104090000000F87F4FEA41034FEA5353A3F58063D2
:1040A000D3F11E03C8BFD3F1210C0CDD4FF0004249
:1040B00042EAC12242EA505232FA03FC8CEAE17C25
:1040C000ACEBE1707047102BC4BF0020704703F5C4
:1040D000787CBCF1FF3F04D06FF0004282EA2100FF
:1040E000704770B500F0C6F84992248000207047F0
:1040F000F2E710F0004248BF4042B0FA80F310FAF5
:1041000003F10AD0C3F11D0303F580634FEA415068
:1041100002EB035202EBD12170474FF000007047D1
:10412000DFF848C170B51CEA111E1EBF1CEA13154A
:104130009EEA0C0F95EA0C0F00F06F8081EA0304F1
:1041400023EA4C134EEAD47E21EA4C1141F480114B
:1041500043F48013AE44A1FB024CA0FB0365AEF117
:104160007F7E361955EB0C05A1FB034C4CF1000387
:10417000A0FB021C16EB0C06654153F1000309423B
:1041800018BF46F0010613F4007F0BD14FEA03314C
:104190004FEA0530340341EA155140EA16506FF0FA
:1041A00003020AE04FEAC3214FEAC520F40241EAC4
:1041B000555140EA56506FF0020202EB2E4201EBDD
:1041C000025585EACE710AD05FEA440C18BF24F08C
:1041D000004450F1000041F1000120EAD47040F2A7
:1041E000FE7C624500D270BDA84214BF4FF08044EF
:1041F0004FF04044002E08BF0024BEF1806FA8BFDE
:10420000A1F1C041BDE8704080F282804FF0000013
:1042100001F1C04101F0004170479EEA0C0F0CEA29
:10422000131518BF95EA0C0F06D04FF0000081EA75
:10423000030E0EF0004170BD00F01CF88900013E35
:1042400000F007B800F009B84FEA430C5FEA5C5C85
:1042500008D081EA030100F05BB84FEA410C5FEA45
:104260005C5CF6D14FF00000014970470000FF0789
:104270000000F87F0EF1020E2EF0030E5EF8046BC4
:10428000364205D4012A43EB030515F5001F12D869
:10429000012841EB010C1CF5001F0CD80ED14FEA90
:1042A000D17C15F5001F0CEB4C0C0CF1020C08BF77
:1042B0004CEBD37C04E04FF0080C01E04FEAD37CD8
:1042C0000CEB4C0526FA05F606F00706B6F1040CD1
:1042D00006D20EEB860CBDE870404CF0010C604736
:1042E000DFE80CF0090B02024FF000414FF0000034
:1042F000A1F5002170BD19461046012851EB0104BB
:1043000018BFD4F5001484BF002001F0004170BD37
:104310000808A0F500114FEA3101704710B591EA85
:10432000030F48BF83F000433FF5BCAC841A71EB28
:10433000030C07D212198CF0004C43EB0C03001B4A
:1043400061EB0C01DFF8A4E14FEA1154A4EB135C1C
:104350001EEA430F18BF9EEA445F00F0B08023EAD4
:104360006E03524221EA0451C3EB6E0338BF5B1E59
:10437000DCF1200E25D322FA0CFE10EB0E0043FADE
:104380000CFE41EB0E01CCF1200E03FA0EFE10EBF9
:104390000E0051F10001CCF1200E29D412FA0EF2D8
:1043A00001EB0451BDE8104058BF7047401C1CBFD2
:1043B000B2F1004F704700280CBF491C20F00100EB
:1043C000704712EB020E43EB030218BF4FF0010ED1
:1043D0004EEA4202ACF1200CDCF11E0E54D943FA35
:1043E0000CFE10EB0E0051F1FF31CCF11E0ED5D5B5
:1043F0000EF1010E12FA0EFE404141EB010101EBFC
:10440000445C5FEA5C5C10D910EBDE7001EB045198
:1044100038BFBEF1004FBDE8104018BF70470028FC
:104420000CBF491C20F00100704730D24FEAD42C59
:1044300011F5001124F400641BD0B1FA81F20B3A9B
:10444000A41AA41ED2F12003914030FA03F31943B9
:10445000904001EBCC71002C01EB0451BDE8104001
:10446000A8BF704701F1C0414FF0000001F00041CA
:104470007047B0FA80F310FA03F100D110BDE41ACE
:10448000173C4805C90AE4E701EB045110BD491087
:1044900001EB0451BDE810404FEA300002E04FF05C
:1044A000000170474A0008BF0042F8D0B2F5001F73
:1044B00028BF704701F000414FF0000070479EEAAE
:1044C000445F07D011EA5E0FBDE8104004BF002131
:1044D00000207047BDE8104070B5FFF7CBFE00BF6D
:1044E00040DFF63E83F00041104670470000E0FFD9
:1044F00043004FEAD30C4FEA3C0C43401FBF400738
:104500000CF1605113F0FE4F70471CF0006F03D1A7
:1045100000200CF0004170470CF0004343EA50705B
:1045200010B540EACC0000F00EF800BF0000009289
:104530004FEA0001FFF7ECBE4FF000414FF00000E2
:10454000A1F5002170470EF1020E2EF0030E5EF869
:10455000044B244204D44FEA4102B2F17F4F11D8F8
:104560004FEA4003B3F17F4F0CD80ED14FEAD07C15
:10457000B2F17F4F0CEB4C0C0CF1020C08BF4CEB72
:10458000D17C04E04FF0080C01E04FEAD17C0CEB49
:104590004C0324FA03F404F00704B4F1040C06D22B
:1045A0000EEB840CBDE810404CF0010C6047DFE8D6
:1045B0000CF0070802024FF00040A0F5800010BD8B
:1045C0000846420018BFD2F1807288BF00F0004058
:1045D00010BD4FF04070E1EE100A7047FF2141EA34
:1045E000D050C0057047000070460008A929000897
:1045F000FEFF00000000000080000000000000003E
:10460000000000009C460008BD200008FEFF0000DE
:10461000000000008000000000000000000000001A
:104620007C460008E52F00080200000000000000A2
:104630000001000000000000000000008C4600089F
:1046400025300008FEFF000000000000000100000F
:10465000000000000000000000000000000000005A
:104660000102030406070809000000000102030418
:1046700064656661756C745461736B005573617227
:1046800074345F4275675F7461736B005573617258
:1046900074365F4275675F7461736B004C65645F6D
:1046A0004275675F7461736B00000000CC460008C0
:1046B0000000002020030000E8010008284800084E
:1046C00020030020E88300004402000881021B014F
:1046D000291C8210036124F41AAA014979120312D9
:1046E0001E1602A40D01061E4002120973120911C2
:1046F0000A112808C1814001C0804104690C2908C1
:10470000E918A91C091A30091638093660092E70F3
:10471000092F6000FF00C0C101C30302C2C6060723
:10472000C705C5C404CC0C0DCD0FCFCE0E0ACACB25
:104730000BC90908C8D81819D91BDBDA1A1EDEDF25
:104740001FDD1D1CDC14D4D515D71716D6D21213B5
:10475000D311D1D010F03031F133F3F23236F6F715
:1047600037F53534F43CFCFD3DFF3F3EFEFA3A3B65
:10477000FB39F9F83828E8E929EB2B2AEAEE2E2F45
:10478000EF2DEDEC2CE42425E527E7E62622E2E3F5
:1047900023E12120E0A06061A163A3A26266A6A735
:1047A00067A56564A46CACAD6DAF6F6EAEAA6A6BA5
:1047B000AB69A9A86878B8B979BB7B7ABABE7E7FA5
:1047C000BF7DBDBC7CB47475B577B7B67672B2B335
:1047D00073B17170B0509091519353529296565755
:1047E00097559594549C5C5D9D5F9F9E5E5A9A9BE5
:1047F0005B99595898884849894B8B8A4A4E8E8FC5
:104800004F8D4D4C8C448485458747468682424374
:10481000834181800229405A32040110256666A630
:084820003FA9499208000000C5
:04000005080001AD41
:00000001FF
